:020000040800F2
:10000000D00600205502000801230008BD1C00088E
:10001000FD220008210700089D24000800000000C0
:100020000000000000000000000000007523000830
:10003000250700080000000071230008CD230008F8
:100040006F0200086F0200086F0200086F020008CC
:100050006F0200086F020008290700086F020008FD
:100060006F0200086F0200086F0200086F020008AC
:100070006F0200086F0200086F0200086F0200089C
:100080006F0200086F0200086F0200086F0200088C
:100090006F0200086F0200086F0200086F0200087C
:1000A0006F0200086F0200086F0200086F0200086C
:1000B0006F0200086F0200086F0200086F0200085C
:1000C0006F0200086F0200086F0200086F0200084C
:1000D0006F0200086F0200086F0200086F0200083C
:1000E0006F0200086F0200086F0200086F0200082C
:1000F0006F0200086F0200086F0200086F0200081C
:100100006F0200086F0200086F0200086F0200080B
:100110006F0200086F0200086F0200086F020008FB
:100120006F0200086F0200086F0200086F020008EB
:100130006F0200086F0200086F0200086F020008DB
:100140006F0200086F0200086F0200086F020008CB
:100150006F0200086F0200086F0200086F020008BB
:100160006F0200086F0200086F0200086F020008AB
:100170006F0200086F0200086F0200080000000014
:100180006F0200086F02000800F002F800F052F859
:1001900014A696E8000CB244B344DA4501D100F04D
:1001A00049F8BAE80F000FA696E83000A5EB040561
:1001B00004EB0607AAEB0704A7F101074FEA1515A0
:1001C0004FEA3414A4F10104AC4201D300F032F838
:1001D00013F0010F18BFFB1A43F0010300F001F800
:1001E000DBE718471824000038240000103A24BF29
:1001F00078C878C1FAD8520724BF30C830C144BF8C
:1002000004680C6070470000704700000023002461
:1002100000250026103A28BF78C1FBD8520728BF16
:1002200030C148BF0B6070471FB502F0CDF91FBD4C
:1002300010B510BD00F0D0F81146FFF7F5FF02F041
:100240008FF900F0EEF803B4FFF7F2FF03BC00F003
:10025000F5F800000948804709480047FEE7FEE737
:10026000FEE7FEE7FEE7FEE7FEE7FEE7FEE7FEE766
:1002700004480549054A064B7047000089240008D8
:1002800089010008D0000020D0060020D002002004
:10029000D002002053EA020C00F069802DE9F04BF7
:1002A0004FF00006002B1FBFB3FA83F503FA05F4E5
:1002B00024FA05F65E4012BF1643B2FA82F502FA3E
:1002C00005F4C5F120051EBF22FA05FC44EA0C0422
:1002D000203556EA044C4FEA144418BF641C4FF012
:1002E00000084FF00009904271EB030C39D300294C
:1002F00019BFB1FA81F701FA07F6B0FA80F700FAF0
:1003000007F6C7F120071EBF20FA07FC46EA0C06D5
:100310002037B6FBF4FCA7EB0507103F07F01F0BD7
:10032000CBF120062CFA06F60CFA0BFB44BFB346C1
:100330000026202FA4BF5E464FF0000B5BEA060CA0
:1003400008BF4FF0010B19EB0B0948EB0608ABFB9C
:10035000027C06FB02CC0BFB03CCC01B71EB0C0137
:10036000C1E70B46024641464846BDE8F08B13B54F
:10037000084318BF4FF0FF300146AFF30080BDE8DF
:100380001C4070474FF0000200B513469446964655
:10039000203922BFA0E80C50A0E80C50B1F1200198
:1003A000BFF4F7AF090728BFA0E80C5048BF0CC046
:1003B0005DF804EB890028BF40F8042B08BF7047A4
:1003C00048BF20F8022B11F0804F18BF00F8012B16
:1003D0007047704770477047754600F02BF8AE467F
:1003E00005006946534620F00700854618B020B541
:1003F000FFF73EFFBDE820404FF000064FF000073A
:100400004FF000084FF0000BAC46ACE8C009ACE878
:10041000C009ACE8C009ACE8C00921F007018D466D
:10042000704710B50446AFF300802046BDE8104089
:10043000FFF709BF0048704710000020014918204D
:10044000ABBEFEE7260002007047000080B584B016
:10045000322000F093F93020019000F053F805208D
:1004600000F08CF9019800F04DF80120039000F0A5
:1004700085F9019800F046F80A20029000F07EF914
:10048000202000F03FF8029800F078F9282000F0D2
:1004900039F8039800F072F9082000F033F8039857
:1004A00000F06CF9039800F02DF8022000F066F9D6
:1004B000062000F027F8039800F060F90C2000F007
:1004C00021F8039800F05AF904B080BD80B584B0DB
:1004D000039002910398019020B1FFE70198012851
:1004E00005D009E0029840F08000029004E00298F4
:1004F00040F0C0000290FFE79DF8080000F002F80D
:1005000004B080BD80B584B08DF80F009DF80F0059
:1005100000F0F0008DF80E009DF80F0000018DF83E
:100520000D00002002909DF80E0040F00C008DF8A8
:1005300008009DF80E0040F008008DF809009DF8B5
:100540000D0040F00C008DF80A009DF80D0040F001
:1005500008008DF80B0069466420086040F27400C2
:10056000C2F200004E2102AA042300F07FFC012009
:1005700000F004F904B080BD80B584B08DF80F00A0
:100580009DF80F0000F0F0008DF80E009DF80F00B0
:1005900000018DF80D00002002909DF80E0040F043
:1005A0000D008DF808009DF80E0040F009008DF850
:1005B00009009DF80D0040F00D008DF80A009DF82F
:1005C0000D0040F009008DF80B00694664200860BA
:1005D00040F27400C2F200004E2102AA042300F08F
:1005E00045FC012000F0CAF804B080BD80B586B09B
:1005F0000590002004900390059803A901910A2218
:1006000000F010F801980290FFE70298007838B1E6
:10061000FFE70298411C02910078FFF7ADFFF4E775
:1006200006B080BD8BB0099008910792002006901B
:100630000590099868B9FFE70899069A501C06903A
:10064000302088540899069A0020885408980A9007
:1006500062E00998B0F1FF3F0ADCFFE707980A283B
:1006600006D1FFE701200590099840420990FFE775
:10067000FFE70998F8B1FFE7099A079992FBF1F0B3
:1006800000FB1120049004980A2804DBFFE704987B
:100690005730009003E0049830300090FFE7009856
:1006A0000899069A531C069388540998079990FB59
:1006B000F1F00990DDE7059838B1FFE70899069A4F
:1006C000501C06902D208854FFE70899069A0020B8
:1006D00088540390069801380290FFE70398029926
:1006E000884216DAFFE708980399405C8DF8070006
:1006F00008990298085C039A88549DF807000899A5
:10070000029A8854039801300390029801380290AD
:10071000E4E708980A90FFE70A980BB070470000DA
:10072000FFE7FEE77047000080B582B0012000F0CF
:100730004DF800F043FA0190019840F2C801C2F26E
:1007400000010968401A29280BD3FFE7082000F0B0
:100750003DF840F27001C2F2000108680130086003
:10076000FFE7019840F2C801C2F20001086002B040
:1007700080BD000072B6FFE7FEE7000080B584B0E0
:10078000039000F01BFA0290039801900198013049
:1007900048B1FFE740F20800C2F20000017801987A
:1007A00008440190FFE7FFE700F008FA0299401AB9
:1007B0000199884201D2FFE7F6E704B080BD00004E
:1007C00081B0ADF8020001B07047000080B582B082
:1007D000ADF8060043F61440C4F201000068BDF80D
:1007E000061008420CD0FFE7BDF8060043F614419E
:1007F000C4F201010860BDF80600FFF7E1FFFFE762
:1008000002B080BD8EB00D900C9100200A9009902E
:1008100008900B90FFE70B980F2800F2CC81FFE7C0
:100820000B99012088400A900C9800680A990840AA
:10083000099009980A99884240F0B881FFE70C981E
:10084000406800F00300012807D0FFE70C984068DB
:1008500000F0030002282FD1FFE70D988068089070
:100860000B984100032000FA01F108988843089092
:100870000C98C0680B99490000FA01F108980843E8
:10088000089008980D9988600D98406808900B9919
:10089000012000FA01F10898884308900C984068FC
:1008A000C0F300100B9900FA01F108980843089072
:1008B00008980D994860FFE70C98406800F0030025
:1008C000032818D0FFE70D98C06808900B984100E6
:1008D000032000FA01F10898884308900C9880687A
:1008E0000B99490000FA01F108980843089008980C
:1008F0000D99C860FFE70C98406800F003000228DB
:1009000026D1FFE70D980B996FF0030202EA51011F
:100910000844006A08900B9800F0070081000F203F
:1009200000FA01F10898884308900C9800690B9927
:1009300001F00701890000FA01F1089808430890C6
:1009400008980D990B9B02EA530211440862FFE7D5
:100950000D98006808900B984100032000FA01F1FF
:100960000898884308900C98406800F003000B99A1
:10097000490000FA01F108980843089008980D9979
:1009800008600C9880798007002800F00E81FFE74E
:10099000FFE70020079043F64400C4F2020001681C
:1009A00041F480410160006800F48040079007989E
:1009B000FFE70B9820F0030043F60801C4F20101A1
:1009C000405808900B9800F0030081000F2000FAB7
:1009D00001F10898884308900D980021C4F20201A3
:1009E000884203D1FFE7002006905EE00D9840F2B8
:1009F0000041C4F20201884203D1FFE701200590C3
:100A000050E00D9840F60001C4F20201884203D183
:100A1000FFE70220049042E00D9840F60041C4F246
:100A20000201884203D1FFE70320039034E00D98D0
:100A300041F20001C4F20201884203D1FFE7042021
:100A4000029026E00D9841F20041C4F20201884272
:100A500003D1FFE70520019018E00D9841F6000151
:100A6000C4F20201884203D1FFE7062000900AE0A9
:100A70000D9941F60042C4F202020820914208BFDB
:100A800007200090FFE700980190FFE7019802908F
:100A9000FFE702980390FFE703980490FFE70498AC
:100AA0000590FFE705980690FFE70698C0B20B99FE
:100AB00001F00301890000FA01F108980843089049
:100AC00008980B9921F0030143F60802C4F20102D1
:100AD000885043F60840C4F2010000680890099964
:100AE0000898884308900C988079C006002805D59E
:100AF000FFE70999089808430890FFE7089843F62C
:100B00000841C4F20101086043F60C40C4F2010040
:100B10000068089009990898884308900C98807993
:100B20008006002805D5FFE7099908980843089032
:100B3000FFE7089843F60C41C4F20101086043F650
:100B40000440C4F20100006808900999089888439D
:100B500008900C9880798007002805D5FFE709994F
:100B6000089808430890FFE7089843F60441C4F248
:100B70000101086043F60040C4F2010000680890DB
:100B800009990898884308900C988079C00728B183
:100B9000FFE70999089808430890FFE7089843F68B
:100BA0000041C4F201010860FFE7FFE7FFE70B988F
:100BB00001300B902FE60EB07047000040F2CC00E1
:100BC000C2F200000068704780B58EB00C900C989F
:100BD00020B9FFE701208DF8370043E10C9890F829
:100BE0003D0040B9FFE70C99002081F83C000C98CB
:100BF00000F042FAFFE70C99242081F83D000C98A0
:100C00000168086820F0010008600C980168086815
:100C100040F4004008600C980168086820F4004027
:100C2000086000F05DFC0A900C98406848F2A061F2
:100C3000C0F2010188420BD8FFE70A9948F28042CE
:100C4000C0F21E020020914238BF012009900AE044
:100C50000A9940F60012C0F23D020020914238BFCE
:100C600001200990FFE70998012804D1FFE701203E
:100C70008DF83700F6E00A984DF68361C4F21B3117
:100C8000A0FB0110800C0B900C980068406820F0CD
:100C90003F000B9908430C99096848600C9800685C
:100CA000006A20F03F0008900C98406848F2A0616C
:100CB000C0F20101884204D8FFE70B980130079089
:100CC0000EE00B984FF49671484344F6D351C1F2AD
:100CD0006201A0FB0101012000EB91100790FFE7EA
:100CE0000898079908430C99096808620C980068ED
:100CF000C0694CF6FF71884306900C98406848F232
:100D0000A061C0F2010188421FD8FFE70A980138AC
:100D10000C9949684900B0FBF1F001306FF31F30C6
:100D2000032803D8FFE7042005900BE00A98013858
:100D30000C9949684900B0FBF1F001306FF31F30A6
:100D40000590FFE7059804904CE00C98806868B91E
:100D5000FFE70A9801380C99496801EB4101B0FBA3
:100D6000F1F001306FF31F3003900DE00A98013865
:100D70000C99496819225143B0FBF1F0013004216C
:100D800061F31F300390FFE70398000518B9FFE7F0
:100D90000120029023E00C98806868B9FFE70A9868
:100DA00001380C99496801EB4101B0FBF1F00130C9
:100DB0006FF31F3001900DE00A9801380C994968D3
:100DC00019225143B0FBF1F00130042161F31F30CF
:100DD0000190FFE7019840F400400290FFE702987D
:100DE0000490FFE70698049908430C990968C861C4
:100DF0000C980068006820F0C0000C9B1968DA6944
:100E00001B6A1A43104308600C980068806848F217
:100E1000FF3188430C9A1168D36812691A43104352
:100E200088600C980068C06820F0FF000C9B19686F
:100E30005A699B691A431043C8600C980168086896
:100E400040F0010008600C99002008640C9A2021F1
:100E500082F83D100C9908630C9981F83E008DF8DA
:100E60003700FFE79DF837000EB080BD80B588B031
:100E7000DDF828C00690ADF816100492ADF80E30DB
:100E8000FFF79CFE0290069890F83D00202840F065
:100E9000EB80FFE7069802996A4611600221C0F2D2
:100EA00010010122192301F01DF820B1FFE70220F3
:100EB0008DF81F00DCE0FFE7069890F83C00012861
:100EC00004D1FFE702208DF81F00D1E00699012030
:100ED00081F83C00FFE7FFE706980068006800F033
:100EE0000100012807D0FFE706980168086840F074
:100EF00001000860FFE706980168086820F40060B8
:100F000008600699212081F83D000699102081F89B
:100F10003E00069900200864049806994862BDF8CE
:100F20000E00069948850698408D06990885069911
:100F30000020CFF6FF70C8620698BDF816100A9A16
:100F4000029B00F0EFFE20B1FFE701208DF81F00AB
:100F50008EE0FFE70020019006980068406901904C
:100F600006980068806901900198FFE7FFE70698FE
:100F7000008D002860D0FFE706980A99029A01F0D8
:100F8000DFF880B1FFE70698006C042807D1FFE77F
:100F900006980168086840F400700860FFE70120C7
:100FA0008DF81F0064E006980168406A00780861C7
:100FB0000699486A013048620699488D013848858B
:100FC0000699088D0138088506980068406900F088
:100FD00004010120B0EB910F16D1FFE70698008DB8
:100FE00090B1FFE706980168406A007808610699A9
:100FF000486A013048620699488D0138488506994B
:10100000088D01380885FFE706980A99029A00F0D2
:1010100013FF80B1FFE70698006C042807D1FFE7B3
:1010200006980168086840F400700860FFE7012036
:101030008DF81F001CE09AE706980168086840F4E4
:10104000007008600699202081F83D000699002074
:1010500081F83E00FFE70699002081F83C00FFE799
:1010600000208DF81F0003E002208DF81F00FFE72D
:101070009DF81F0008B080BD80B588B007900020A3
:10108000069005900490039002900798006845F23E
:101090000041C4F20001884234D1FFE7FFE700209D
:1010A000019043F63000C4F20200016841F00201F1
:1010B0000160006800F0020001900198FFE7C02085
:1010C0000290122003900020049003200590042039
:1010D000069040F20040C4F2020002A9FFF792FB22
:1010E000FFE70020009043F64000C4F202000168D0
:1010F00041F400110160006800F4001000900098B5
:10110000FFE7FFE708B080BD40F20800C2F2000030
:10111000027840F2CC01C2F2000108681044086075
:101120007047000080B543F60041C4F20201086830
:1011300040F400700860086840F480600860086847
:1011400040F480700860032000F08AF80F2000F05F
:1011500005F800F03BF8002080BD000080B582B0AB
:10116000009040F20000C2F20000006840F2080166
:10117000C2F200010A784FF47A71B1FBF2F1B0FBD0
:10118000F1F000F093FD20B1FFE701208DF807009A
:1011900018E000980F280DD8FFE700994FF0FF30B6
:1011A000002200F043F8009840F20C01C2F2000166
:1011B000086003E001208DF8070003E000208DF8AF
:1011C0000700FFE79DF8070002B080BD82B0FFE78F
:1011D0000020019043F64400C4F20200016841F48B
:1011E00080410160006800F4804001900198FFE7B1
:1011F000FFE70020009043F64000C4F202000168BF
:1012000041F080510160006800F08050009000982B
:10121000FFE702B07047000080B582B08DF807008C
:101220009DF9070001F03CF902B080BD80B586B0A1
:101230008DF81700049103920020029001F048F904
:1012400002909DF91700019002980499039A01F009
:1012500059F80146019801F043F906B080BD00003D
:1012600080B582B00190019801F05CF902B080BDB8
:1012700080B584B002900191029820B9FFE7012067
:101280008DF80F0021E1019843F60041C4F20201FC
:10129000096801F00701884212D9FFE7019943F676
:1012A0000040C4F202000170006800F007000199DC
:1012B000884204D0FFE701208DF80F0005E1FFE729
:1012C00002980078800700282AD5FFE70298007866
:1012D0004007002809D5FFE743F60801C4F20201E0
:1012E000086840F4E0500860FFE7029800780007C3
:1012F000002809D5FFE743F60801C4F20201086897
:1013000040F460400860FFE743F60801C4F20201C0
:10131000086820F0F000029A926810430860FFE726
:1013200002980078C00700286ED0FFE70298406856
:10133000012811D1FFE743F60000C4F20200006863
:1013400000F400310020B0EB514F04D1FFE7012041
:101350008DF80F00B9E02CE002984068022805D013
:10136000FFE702984068032811D1FFE743F6000029
:10137000C4F20200006800F000710020B0EB516F71
:1013800004D1FFE701208DF80F009EE010E043F646
:101390000000C4F20200006800F002010020B0EB7F
:1013A000510F04D1FFE701208DF80F008DE0FFE71A
:1013B000FFE743F60801C4F20201086820F00300C9
:1013C000029A526810430860FFF7F8FB0090FFE7AD
:1013D00043F60800C4F20200006800F00C00029915
:1013E0004968B0EB810F0ED0FFE7FFF7E7FB0099EC
:1013F000401A41F28931884204D3FFE703208DF877
:101400000F0062E0E4E7FFE7019843F60041C4F211
:101410000201096801F00701884212D2FFE7019931
:1014200043F60040C4F202000170006800F00700BB
:101430000199884204D0FFE701208DF80F0044E0B5
:10144000FFE702980078400700280CD5FFE743F635
:101450000801C4F20201086820F4E050029AD26840
:1014600010430860FFE702980078000700280DD5B8
:10147000FFE743F60801C4F20201086820F4604067
:10148000029A126940EAC2000860FFE700F03AF8E9
:1014900043F60801C4F202010968C9B20A0942F21E
:1014A000E251C0F60001895CC84040F20001C2F27E
:1014B0000001086040F20C00C2F200000068FFF773
:1014C0004DFE00208DF80F00FFE79DF80F0004B0DF
:1014D00080BD000040F20000C2F2000000687047CA
:1014E00080B5FFF7F7FF43F60801C4F2020109686F
:1014F000C1F3822242F2F251C0F60001895CC84079
:1015000080BD000080B586B0002005900490039057
:10151000029043F60800C4F20200006800F00C00DC
:101520000146019140B1FFE7019804280AD0FFE786
:10153000019808280CD04FE042F20040C0F2F400BD
:1015400002904FE041F20020C0F27A00029049E0A0
:1015500043F60400C4F20200016801F03F01059166
:1015600000684002002813D5FFE743F60400C4F2E8
:1015700002000068C0F3881041F20021C0F27A0135
:10158000A0FB0101059A0023FEF784FE049012E0FF
:1015900043F60400C4F202000068C0F3881042F26F
:1015A0000041C0F2F401A0FB0101059A0023FEF7FF
:1015B00071FE0490FFE743F60400C4F202000068E5
:1015C00000F44031022000EBD130039004980399DD
:1015D000B0FBF1F0029005E042F20040C0F2F400EE
:1015E0000290FFE7029806B080BD000080B586B08B
:1015F0000490049820B9FFE701208DF8170050E30C
:1016000004980078C007002800F0A580FFE743F6A3
:101610000800C4F20200006800F00C00042813D097
:10162000FFE743F60800C4F20200006800F00C0077
:1016300008281ED1FFE743F60400C4F20200006848
:101640004002002815D5FFE743F60000C4F202006F
:10165000006800F400310020B0EB514F08D0FFE7E4
:101660000498406820B9FFE701208DF8170018E3BF
:1016700070E0FFE704984068B0F5803F09D1FFE7CC
:1016800043F60001C4F20201086840F480300860AB
:1016900020E004984068B0F5A02F0DD1FFE743F695
:1016A0000001C4F20201086840F480200860086864
:1016B00040F4803008600CE043F60001C4F20201FF
:1016C000086820F480300860086820F480200860F2
:1016D000FFE7FFE7FFE704984068E8B1FFE7FFF79F
:1016E0006DFA0390FFE743F60000C4F202000068C1
:1016F00000F400310020B0EB514F0CD1FFE7FFF7B1
:101700005DFA0399401A652804D3FFE703208DF89A
:101710001700C6E2E7E71CE0FFF750FA0390FFE787
:1017200043F60000C4F20200006800F4003100201B
:10173000B0EB514F0CD0FFE7FFF740FA0399401A86
:10174000652804D3FFE703208DF81700A9E2E7E737
:10175000FFE7FFE7FFE7049800788007002840F1E3
:101760009680FFE743F60800C4F20200006810F01C
:101770000C0F13D0FFE743F60800C4F20200006824
:1017800000F00C0008282CD1FFE743F60400C4F257
:10179000020000684002002823D4FFE743F600005F
:1017A000C4F20200006800F002010020B0EB510F0B
:1017B00009D0FFE70498C068012804D0FFE70120A2
:1017C0008DF817006DE243F60001C4F202010868CB
:1017D00020F0F800049A126940EAC2000860FFE7AE
:1017E00054E00498C06870B3FFE70021C4F24721B9
:1017F00001200860FFF7E2F90390FFE743F60000DD
:10180000C4F20200006800F002010020B0EB510FAA
:101810000CD1FFE7FFF7D2F90399401A032804D34C
:10182000FFE703208DF817003BE2E7E743F60001EE
:10183000C4F20201086820F0F800049A126940EA34
:10184000C200086021E00021C4F2472100200860A6
:10185000FFF7B4F90390FFE743F60000C4F202007B
:10186000006800F002010020B0EB510F0CD0FFE740
:10187000FFF7A4F90399401A032804D3FFE70320D4
:101880008DF817000DE2E7E7FFE7FFE7FFE70498B1
:101890000078000700284BD5FFE70498406918B38B
:1018A000FFE740F68061C4F2472101200860FFF79E
:1018B00085F90390FFE743F67400C4F20200006864
:1018C00000F002010020B0EB510F0CD1FFE7FFF751
:1018D00075F90399401A032804D3FFE703208DF814
:1018E0001700DEE1E7E722E040F68061C4F247211D
:1018F00000200860FFF762F90390FFE743F67400E9
:10190000C4F20200006800F002010020B0EB510FA9
:101910000CD0FFE7FFF752F90399401A032804D3CC
:10192000FFE703208DF81700BBE1E7E7FFE7FFE7DC
:10193000049800784007002840F1CE80FFE700209F
:101940008DF8070043F64000C4F202000068C000B2
:10195000002815D4FFE7FFE70020009043F6400081
:10196000C4F20200016841F080510160006800F09B
:10197000805000900098FFE701208DF80700FFE7F6
:1019800047F20000C4F200000068C005002822D41D
:10199000FFE747F20001C4F20001086840F48070DC
:1019A0000860FFF70BF90390FFE747F20000C4F26D
:1019B00000000068C00500280CD4FFE7FFF7FEF820
:1019C0000399401A032804D3FFE703208DF817007A
:1019D00067E1EAE7FFE7FFE704988068012809D19B
:1019E000FFE743F67001C4F20201086840F001000D
:1019F00008601FE00498806805280DD1FFE743F6D2
:101A00007001C4F20201086840F004000860086830
:101A100040F0010008600CE043F67001C4F20201DE
:101A2000086820F001000860086820F004000860E1
:101A3000FFE7FFE7FFE704988068F8B1FFE7FFF7EB
:101A4000BDF80390FFE743F67000C4F2020000689F
:101A500000F002010020B0EB510F0ED1FFE7FFF7BD
:101A6000ADF80399401A41F28931884204D3FFE767
:101A700003208DF8170014E1E5E71EE0FFF79EF85C
:101A80000390FFE743F67000C4F20200006800F024
:101A900002010020B0EB510F0ED0FFE7FFF78EF8E8
:101AA0000399401A41F28931884204D3FFE70320A9
:101AB0008DF81700F5E0E5E7FFE79DF8070001283E
:101AC00009D1FFE743F64001C4F20201086820F0A3
:101AD00080500860FFE7FFE704988069002800F065
:101AE000DC80FFE743F60800C4F20200006800F063
:101AF0000C00082800F08580FFE704988069022820
:101B00005CD1FFE76021C4F2472100200860FFF7A5
:101B100055F80390FFE743F60000C4F202000068A6
:101B200000F000710020B0EB516F0CD0FFE7FFF721
:101B300045F80399401A032804D3FFE703208DF8E2
:101B40001700AEE0E7E70499C869D1F820C04B6AF6
:101B50008A6A40EA0C0040EA8310D2034FF6FF7312
:101B60009A43A2F580321043C96A40EA016043F605
:101B70000401C4F2020108606021C4F2472101207F
:101B80000860FFF71BF80390FFE743F60000C4F27C
:101B90000200006800F000710020B0EB516F0CD122
:101BA000FFE7FFF70BF80399401A032804D3FFE778
:101BB00003208DF8170074E0E7E721E06021C4F20C
:101BC000472100200860FEF7F9FF0390FFE743F686
:101BD0000000C4F20200006800F000710020B0EBC9
:101BE000516F0CD0FFE7FEF7E9FF0399401A032875
:101BF00004D3FFE703208DF8170052E0E7E7FFE783
:101C00004AE004988069012804D1FFE701208DF89B
:101C1000170046E043F60400C4F202000068029098
:101C200004988069012831D0FFE7029800F4800011
:101C30000499C969884229D1FFE7029800F03F0062
:101C40000499096A884221D1FFE7029847F6C071DA
:101C500008400499496AB0EB811F17D1FFE7029849
:101C600000F440300499896AC9034FF6FF7291432A
:101C7000A1F58031884209D1FFE7029800F0706039
:101C80000499C96AB0EB016F04D0FFE701208DF819
:101C9000170006E0FFE7FFE7FFE700208DF81700D9
:101CA000FFE79DF8170006B080BD000080B582B048
:101CB0000190019800F060FB02B080BDFFE7FEE7F5
:101CC00082B0009000980068406900F480610120B3
:101CD000B0EB912F1ED1FFE7009801686FF4806090
:101CE0004861009900200863009A202182F83D1085
:101CF000009981F83E000099086C40F004000864E7
:101D0000FFE70099002081F83C00FFE701208DF8F3
:101D1000070003E000208DF80700FFE79DF80700AB
:101D200002B0704780B588B00690ADF816100492E6
:101D300003930698C06A02900298082809D0FFE72A
:101D40000298012805D0FFE7029810F5803F07D1DF
:101D5000FFE706980168086840F4807008600DE0AD
:101D60000698006B122807D1FFE7069801680868FB
:101D700040F48070086000E0FFE7FFE70698049BEE
:101D800003996A4611604FF00111002200F0AAF891
:101D900080B1FFE7069800680068C005002805D5F7
:101DA000FFE706994FF400700864FFE703208DF801
:101DB0001F003CE006980069B0F5804F08D1FFE7AE
:101DC000BDF8160000F0FE000699096808611CE0E5
:101DD000BDF8160000F44070C009F030069909689B
:101DE00008610698049A039B0821C0F2010100F0E3
:101DF000FDF820B1FFE701208DF81F0017E09DF8E6
:101E00001600069909680861FFE70698049A039B83
:101E10000221C0F2010100F0E9F820B1FFE7012042
:101E20008DF81F0003E000208DF81F00FFE79DF8EC
:101E30001F0008B080BD000080B584B00290019101
:101E40000092FFE702980068406900F0040100205A
:101E5000B0EB910F3ED1FFE70298FFF731FF20B1C1
:101E6000FFE701208DF80F0038E00198013080B3C2
:101E7000FFE7FEF7A3FE0099401A0199884203D8B4
:101E8000FFE7019820BBFFE702980068406900F077
:101E900004010020B0EB910F19D1FFE70299002057
:101EA0000863029A202182F83D10029981F83E00D1
:101EB0000299086C40F020000864FFE702990020B6
:101EC00081F83C00FFE701208DF80F0006E0FFE7F6
:101ED000FFE7B7E700208DF80F00FFE79DF80F0040
:101EE00004B080BD80B588B0DDF828C006900591AB
:101EF0008DF813200393FFE79DF8160001280CD1FD
:101F0000FFE7069800684069BDF814100840401AC1
:101F1000B0FA80F0400902900BE0069800688069F2
:101F2000BDF814100840401AB0FA80F04009029041
:101F3000FFE702989DF8131088424FD1FFE70398FE
:101F40000130002849D0FFE7FEF738FE0A99401A11
:101F50000399884203D8FFE70398E8BBFFE79DF8A1
:101F6000160001280CD1FFE7069800684069BDF80B
:101F700014100840401AB0FA80F0400901900BE0BC
:101F8000069800688069BDF814100840401AB0FA3D
:101F900080F040090190FFE701989DF813108842F6
:101FA00019D1FFE7069900200863069A202182F8DC
:101FB0003D10069981F83E000699086C40F020001B
:101FC0000864FFE70699002081F83C00FFE7012044
:101FD0008DF81F0006E0FFE7FFE78DE700208DF892
:101FE0001F00FFE79DF81F0008B080BD80B588B0D6
:101FF0000690059104920393FFE79DF816000128CF
:102000000CD1FFE7069800684069BDF8141008403D
:10201000401AB0FA80F0400902900BE00698006880
:102020008069BDF814100840401AB0FA80F04009E9
:102030000290FFE7029800287AD1FFE7069800682F
:10204000406900F480610120B0EB912F24D1FFE7BB
:1020500006980168086840F40070086006980168F6
:102060006FF480604861069900200863069A202179
:1020700082F83D10069981F83E000699086C40F000
:1020800004000864FFE70699002081F83C00FFE7A0
:1020900001208DF81F004FE004980130002846D041
:1020A000FFE7FEF78BFD0399401A0499884203D895
:1020B000FFE70498D0BBFFE79DF8160001280CD17C
:1020C000FFE7069800684069BDF814100840401A00
:1020D000B0FA80F0400901900BE006980068806932
:1020E000BDF814100840401AB0FA80F04009019081
:1020F000FFE70198C8B9FFE7069900200863069A30
:10210000202182F83D10069981F83E000699086C5E
:1021100040F020000864FFE70699002081F83C00A9
:10212000FFE701208DF81F0006E0FFE7FFE764E707
:1021300000208DF81F00FFE79DF81F0008B080BD4C
:1021400080B584B0029001910092FFE70298006888
:102150004069C1B20020B0EBD11F3DD1FFE702982A
:10216000FFF7AEFD20B1FFE701208DF80F0037E04B
:102170000198013078B3FFE7FEF720FD0099401A7F
:102180000199884203D8FFE7019818BBFFE702983E
:1021900000684069C1B20020B0EBD11F19D1FFE740
:1021A000029900200863029A202182F83D100299CA
:1021B00081F83E000299086C40F020000864FFE7B7
:1021C0000299002081F83C00FFE701208DF80F0004
:1021D00006E0FFE7FFE7B9E700208DF80F00FFE713
:1021E0009DF80F0004B080BD80B58CB0FFE70020E3
:1021F0000B9043F63000C4F20200016841F0040184
:102200000160006800F004000B900B98FFE7FFE707
:1022100000200A9043F63000C4F20200016841F049
:1022200080010160006800F080000A900A98FFE7D2
:10223000FFE70020099043F63000C4F20200016875
:1022400041F001010160006800F001000990099867
:10225000FFE7FFE70020089043F63000C4F20200D9
:10226000016841F002010160006800F0020008907E
:102270000898FFE7002001900790069005900490D1
:102280000390012003904FF48810049002200590E1
:102290000020C4F2020003A9FEF7B4FA019A062056
:1022A00002901146FEF7C2FF0298FEF7B5FF0CB090
:1022B00080BD000080B582B040F27400C2F2000020
:1022C000019045F20041C4F20001016048F2A061B2
:1022D000C0F20101416000218160C1604FF4804281
:1022E000026141618161C1610162FEF76DFC18B15B
:1022F000FFE7FEF73FFAFFE702B080BDFFE7FEE72A
:10230000FFE7FEE788B0079006910592079800F076
:10231000070004900498C0F10700052803D3FFE7E5
:102320000420019004E00498C0F107000190FFE749
:102330000198039004980430062803D8FFE7002092
:10234000009003E0049803380090FFE700980290A3
:1023500006980399012202FA01F101390840029B13
:10236000984005999A40013A1140084308B07047D7
:10237000704700007047000080B582B00090009860
:102380000138B0F1807F03D3FFE70120019019E00D
:10239000009801384EF21401CEF2000108604FF0AF
:1023A000FF300F2100F09CF84EF21801CEF2000130
:1023B000002008604EF21002CEF2000207211160E8
:1023C0000190FFE7019802B080BD000080B5FEF7E4
:1023D0009BFE80BD80B594B008A83021FDF7D2FFE8
:1023E000002007900690059004900390FFE70020DE
:1023F000029043F64000C4F20200016841F08051AF
:102400000160006800F0805002900298FFE7FFE74B
:102410000020019047F20000C4F20000016841F47E
:1024200080410160006800F4804001900198FFE75E
:10243000012008904FF48030099002210E914FF452
:1024400080000F9004201090482211921291139056
:1024500008A8FFF7CBF818B1FFE7FEF78BF9FFE705
:102460000F20039002210491002005904FF4805228
:102470000692079003A8FEF7FBFE18B1FFE7FEF7F0
:1024800079F9FFE714B080BD4EF68851CEF2000115
:10249000086840F47000086070470000FFE7FEE73E
:1024A00081B08DF803009DF9030000280ED4FFE7EA
:1024B0009DF9031001F01F02012090404A094EF2DD
:1024C0000011CEF2000141F82200FFE701B0704791
:1024D0004EF60C50CEF200000068C0F302207047A8
:1024E00082B08DF8070000919DF9070000280AD4FA
:1024F000FFE7009800019DF907104EF20042CEF26E
:10250000000288540BE0009800019DF8071001F0CC
:102510000F014EF61452CEF200028854FFE702B0CB
:102520007047000083B00290029800F0070000900E
:102530004EF60C51CEF200010868019001984FF65A
:10254000FF02104001900198009A40EA0220002208
:10255000C0F2FA52104301900198086003B070472E
:1025600080B582B000200190FEF7DCFDFFF732FF5E
:10257000FFF73AFEFFF79EFEFDF768FF0A20FEF721
:10258000FDF8FFE740F20400C2F20000006840F2EC
:102590007001C2F200010968884214D0FFE70021EF
:1025A0000846FDF793FF40F27000C2F20000009071
:1025B0000068FEF71BF80098006840F20401C2F2C0
:1025C00000010860FFE7DDE7F1EE100A4FF6FF714A
:1025D000C0F2C03120EA010040F04070E1EE100A84
:1025E000704700000000000000000102030406071D
:1025F0000809000000000102030400002026000872
:102600000000002010000000EC0100083026000847
:1026100010000020C00600000C02000800000000AE
:102620000024F400FFFFFFFF010000001000000085
:040000050800018965
:00000001FF
