:020000040800F2
:10000000C806002055020008411600081D1200080D
:100010003D160008650500080917000800000000EB
:100020000000000000000000000000004916000869
:100030006905000800000000451600084D1600087C
:100040006F0200086F0200086F0200086F020008CC
:100050006F0200086F0200086F0200086F020008BC
:100060006F0200086F0200086F0200086F020008AC
:100070006F0200086F0200086F0200086F0200089C
:100080006F0200086F0200086F0200086F0200088C
:100090006F0200086F0200086F0200086F0200087C
:1000A0006F0200086F0200086F0200086F0200086C
:1000B0006F0200086F0200086F0200086F0200085C
:1000C0006F0200086F0200086F0200086F0200084C
:1000D0006F0200086F0200086F0200086F0200083C
:1000E0006F0200086F0200086F0200086F0200082C
:1000F0006F0200086F0200086F0200086F0200081C
:100100006F0200086F0200086F0200086F0200080B
:100110006F0200086F0200086F0200086F020008FB
:100120006F0200086F0200086F0200086F020008EB
:100130006F0200086F0200086F0200086F020008DB
:100140006F0200086F0200086F0200086F020008CB
:100150006F0200086F0200086F0200086F020008BB
:100160006F0200086F0200086F0200086F020008AB
:100170006F0200086F0200086F0200080000000014
:100180006F0200086F02000800F002F800F052F859
:1001900014A696E8000CB244B344DA4501D100F04D
:1001A00049F8BAE80F000FA696E83000A5EB040561
:1001B00004EB0607AAEB0704A7F101074FEA1515A0
:1001C0004FEA3414A4F10104AC4201D300F032F838
:1001D00013F0010F18BFFB1A43F0010300F001F800
:1001E000DBE71847301B0000501B0000103A24BF0B
:1001F00078C878C1FAD8520724BF30C830C144BF8C
:1002000004680C6070470000704700000023002461
:1002100000250026103A28BF78C1FBD8520728BF16
:1002200030C148BF0B6070471FB501F05AFD1FBDBC
:1002300010B510BD00F0D0F81146FFF7F5FF01F042
:1002400065FA00F0EEF803B4FFF7F2FF03BC00F02C
:10025000F5F800000948804709480047FEE7FEE737
:10026000FEE7FEE7FEE7FEE7FEE7FEE7FEE7FEE766
:1002700004480549054A064B70470000F51600087A
:1002800089010008C8000020C8060020C80200201C
:10029000C802002053EA020C00F069802DE9F04BFF
:1002A0004FF00006002B1FBFB3FA83F503FA05F4E5
:1002B00024FA05F65E4012BF1643B2FA82F502FA3E
:1002C00005F4C5F120051EBF22FA05FC44EA0C0422
:1002D000203556EA044C4FEA144418BF641C4FF012
:1002E00000084FF00009904271EB030C39D300294C
:1002F00019BFB1FA81F701FA07F6B0FA80F700FAF0
:1003000007F6C7F120071EBF20FA07FC46EA0C06D5
:100310002037B6FBF4FCA7EB0507103F07F01F0BD7
:10032000CBF120062CFA06F60CFA0BFB44BFB346C1
:100330000026202FA4BF5E464FF0000B5BEA060CA0
:1003400008BF4FF0010B19EB0B0948EB0608ABFB9C
:10035000027C06FB02CC0BFB03CCC01B71EB0C0137
:10036000C1E70B46024641464846BDE8F08B13B54F
:10037000084318BF4FF0FF300146AFF30080BDE8DF
:100380001C4070474FF0000200B513469446964655
:10039000203922BFA0E80C50A0E80C50B1F1200198
:1003A000BFF4F7AF090728BFA0E80C5048BF0CC046
:1003B0005DF804EB890028BF40F8042B08BF7047A4
:1003C00048BF20F8022B11F0804F18BF00F8012B16
:1003D0007047704770477047754600F02BF8AE467F
:1003E00005006946534620F00700854618B020B541
:1003F000FFF73EFFBDE820404FF000064FF000073A
:100400004FF000084FF0000BAC46ACE8C009ACE878
:10041000C009ACE8C009ACE8C00921F007018D466D
:10042000704710B50446AFF300802046BDE8104089
:10043000FFF709BF0048704710000020014918204D
:10044000ABBEFEE7260002007047000070B582B028
:10045000322000F08BF840F2700443F63C06C2F202
:100460000004C0F60C06642501AA20464E21042390
:100470000196009500F01CFA052000F077F801AA1B
:1004800020464E2104230196009500F011FA012028
:1004900000F06CF801AA20464E2104230196009535
:1004A00000F006FA0A2000F061F842F62C00C0F6CF
:1004B0000C00019001AA20464E210423009500F073
:1004C000F7F90A2000F052F842F62C00C8F68C002A
:1004D000019001AA20464E210423009500F0E8F97E
:1004E000012000F043F840F60C00C8F68C000190A3
:1004F00001AA20464E210423009500F0D9F90120DD
:1005000000F034F840F60C00C1F61C00019001AA7E
:1005100020464E210423009500F0CAF9022000F085
:1005200025F840F60C00C6F66C00019001AA2046A2
:100530004E210423009500F0BBF9012000F016F8CD
:1005400040F60C00CFF6FC00019001AA20464E2197
:100550000423009500F0ACF9012000F007F802B088
:1005600070BD0000FEE7000070470000B0B5044613
:1005700000F0E6F8054640F20000C2F20000007804
:10058000611C18BF044400BF00F0DAF8401BA04211
:10059000FAD3B0BD2DE9F04F83B000F1200200F195
:1005A0003E4741F60045009207F1FF77C4F202058D
:1005B00008224FEAB726A84208BF072200254FF0BD
:1005C00000084FF00009072E38BF4FEAB72201920A
:1005D0000AE000BF09F1010908F10208B9F1100FA2
:1005E00005F1040500F0A2800F68012202FA09FE5D
:1005F00017EA0E0AEED0D1F804C003220CF003076C
:100600007E1E02FA08F4012E6FEA040B12D88468E9
:10061000CE6804EA0B0406FA08F6344384604468A2
:1006200024EA0E06CCF3001404FA09F426434660CB
:1006300004E000BF032F01D103271EE0C6688C68C9
:1006400006EA0B0604FA08F42643022FC66014D10A
:100650006FF00302009E02EA590756F807C005F042
:100660001C040F220B69A2402CEA0202A3401A4389
:10067000F251D1F804C00CF00307026807FA08F33E
:1006800002EA0B021A431CF4403F0260A2D000228F
:1006900043F644030292C4F202031A6843F600448C
:1006A00042F480421A601A68C4F2010402F48042E3
:1006B0000292029A29F003024FF6084C2244CFF628
:1006C000FF7C52F80C3005F00C070F26BE40B343F8
:1006D000019E06FA07F73B4342F80C30A2684B68CC
:1006E00042EA0A0743F60C4CDE0258BF22EA0A0728
:1006F000A760C4F2010CDCF800209E0242EA0A075F
:1007000058BF22EA0A07CCF8007062689E0342EAEA
:100710000A0758BF22EA0A0767602268DB0342EA39
:100720000A0758BF22EA0A07276053E703B0BDE86B
:10073000F08F00000069084018BF012070470000DA
:1007400040F2C400C2F2000000687047002804BFF5
:1007500001207047F0B581B0044690F83D0028B9FB
:10076000002084F83C00204600F090F9242084F812
:100770003D002068016821F001010160016841F439
:1007800000410160016821F40041016000F010FBAC
:10079000636848F2A16CC0F2010C40F60011C0F28F
:1007A0003D0163453CBF48F28041C0F21E018842D2
:1007B00002D2012001B0F0BD4DF68361C4F21B31BD
:1007C000A0FB01122168970CD1F804E04FF4967653
:1007D0002EF03F0545EA92454D60774348F63816BE
:1007E0000D6AC0F24106A7FB067625F03F07634578
:1007F00038BF960C721C3A430A62CA6948F2A06676
:100800004CF6FF77C0F20106B34222EA07020BD88A
:1008100001385B00B0FBF3F001306FF31F300428A8
:1008200098BF04201BE000BFA768013857B1192703
:100830007B43B0FBF3F001306FF31F3070B100F574
:10084000804007E003EB4303B0FBF3F001306FF3AC
:100850001F3018B100F5004001E000BF0120104337
:10086000C8610868D4E9072320F0C000104318438A
:100870000860886848F2FF3204F10C0790438CCF7F
:1008800018431043A6698860C86820F0FF00384309
:100890003043C860086840F0010008600020202153
:1008A000206484F83D10206384F83E0001B0F0BD60
:1008B0002DE9F04383B01E46174689460446FFF7EC
:1008C0003FFF94F83D10202924D10546206800BF41
:1008D000816989071AD5FFF733FF411B20681A2960
:1008E000F6D381698907F3D500202021206384F89D
:1008F0003D1084F83E00216C41F02001216484F811
:100900003C00022003B0BDE8F08300BF94F83C1027
:10091000012903D1022003B0BDE8F083012184F84E
:100920003C100168C90703D1016841F00101016071
:10093000016840F2020821F400610160212184F87D
:100940003D10102184F83E10002121646762668505
:10095000618DC0F201082185A8F10211E162E16A0E
:100960000A9E11F5803F18BF01291DD1016841F48D
:100970008071016020464FF001110022334600953E
:1009800000F0ACFC50B120680068C00544BF4FF4D3
:1009900000702064012003B0BDE8F0832069B0F549
:1009A000804F07D1FE2015E00829DFD0216B1229E6
:1009B000DCD0DFE7062000EAD9102168F0300861BA
:1009C00008F10601204632462B4600F06DFD002856
:1009D000E0D1FF20216800EA090008612046414675
:1009E00032462B4600F060FD0028D3D10020029053
:1009F00020684169029180690290029806E000BF78
:100A0000204631462A4600F00BFC18BB208D68B307
:100A1000204631462A4600F0B3FDD8B9606A216805
:100A2000024612F8013B0B616262628D013A6285F7
:100A3000228D531E23854F697F07E1D51B04DFD02C
:100A4000437802300B616062608D01386085901ED2
:100A50002085D5E7206C04289CD12068016841F4EA
:100A600000710160012003B0BDE8F08320680168D7
:100A700041F400710160202084F83D00002084F8DA
:100A80003E0084F83C0003B0BDE8F083B0B586B00A
:100A900045F200410068C4F2000100248842059438
:100AA000CDE903440294019402D006B0B0BD00BF6A
:100AB00043F630050094C4F20205286840F00200B5
:100AC0002860286800F0020000900098C020019083
:100AD0001220CDE90204032004900420059001F5C2
:100AE000D83001A9FFF756FD0094286940F40010A2
:100AF0002861286900F400100090009806B0B0BD8D
:100B000040F2000040F2C401C2F20000C2F2000153
:100B100000780A68104408607047000080B543F60A
:100B20000040C4F20200016841F4007101600168F4
:100B300041F480610160016841F48071016003202B
:100B400000F074F80F2000F005F800F027F80020FE
:100B500080BD000070B540F20006C2F2000640F20F
:100B600008013278C2F200014FF47A730968B3FBCE
:100B7000F2F20446B1FBF2F1084600F039FB0F2C0B
:100B80004FF0010508D838B94FF0FF302146002258
:100B9000002500F01FF87460284670BD82B0002068
:100BA00043F640010190C4F202014A6842F48042D7
:100BB0004A604A6802F480420192019A00900868F3
:100BC00040F080500860086800F080500090009865
:100BD00002B0704710B54EF60C5CCEF2000CDCF89B
:100BE0000030C3F3022E8EF00704042C28BF042427
:100BF000BEF103034FF0FF3E0EFA04F438BF0023AA
:100C0000A14399400EFA03F39A43114300F00F02F7
:100C100000F160430901043A03F56443624400288B
:100C200048BF02F10C03197010BD00004EF60C51C4
:100C3000CEF200010A684FF6FF031A4060F30A2261
:100C400042F0806040F0FD7008607047002804BFEB
:100C5000012070472DE9F04143F60808C4F202086C
:100C60000446D8F8F8030D4600F00700884207D282
:100C700088F8F853D8F8F80300F00700A84277D1B5
:100C80002068810717D5410705D5D8F8001041F431
:100C9000E051C8F80010010705D5D8F8001041F45C
:100CA0006041C8F80010D8F80010A26821F0F001E7
:100CB0001143C8F80010C00740D1D8F8F80300F07D
:100CC0000700A84207D988F8F853D8F8F80300F0CD
:100CD0000700A8424CD12068410707D5D8F800107A
:100CE000E26821F4E0511143C8F80010000708D56C
:100CF000D8F80000216920F4604040EAC100C8F83B
:100D0000000000F069F8D8F8001041F6FC42C1F389
:100D10000311C0F60002515C40F2080220FA01F112
:100D200040F20400C2F200000068C2F2000211604A
:100D3000FFF710FF0020BDE8F08100BF6068811E52
:100D4000022907D258F8081C89015CBF0120BDE8C0
:100D5000F08111E0012807D158F8081C89035CBF15
:100D60000120BDE8F08107E058F8081C890703D48A
:100D70000120BDE8F08100BFD8F8001021F0030188
:100D80000843C8F80000FFF7DBFC064641F288374D
:100D9000D8F80000616800F00C00B0EB810F8CD037
:100DA000FFF7CEFC801BB842F2D90320BDE8F081EA
:100DB00040F2080043F60801C2F20000C4F202014A
:100DC0000068096841F60C52C1F38221C0F60002A6
:100DD000515CC8407047000010B543F60404C4F2EB
:100DE0000204606800F00C0142F200400829C0F2E1
:100DF000F40007D0042918BF10BD41F20020C0F252
:100E00007A0010BD216801F03F0221682368490281
:100E1000C3F3881106D4A1FB00010023FFF73AFABF
:100E200007E000BF41F20020C0F27A004843B0FB67
:100E3000F2F021680222C1F3014102EB4101B0FB53
:100E4000F1F010BD002804BF012070472DE9F041EA
:100E500082B00446007843F60006C007C4F20206DA
:100E60000CD0B06800F00C00042840F0818030689D
:100E7000800303D56068002800F06881207880072F
:100E80001BD5B06810F00C0F09D0B06800F00C0052
:100E9000082840F087807068400200F18380306845
:100EA000800703D5E068012840F05081306821694F
:100EB00020F0F80040EAC10030602078000713D429
:100EC000207840072AD4A569002D00F03A81B06847
:100ED00000F00C00082840F0A580012D40F00E81A4
:100EE000012002B0BDE8F0816069002800F0828036
:100EF0000020C4F247200121C0F8801EFFF720FC2B
:100F0000054600BF706F8007DAD4FFF719FC401B5D
:100F10000228F7D9032002B0BDE8F081306C5FEA07
:100F2000C0080AD400200190306C40F0805030643A
:100F3000306C00F080500190019847F20007C4F235
:100F400000073868C00547D4386840F480703860BE
:100F5000FFF7F6FB054600BF3868C0053CD4FFF735
:100F6000EFFB401B0228F7D9032002B0BDE8F08157
:100F7000B06800F00C00082803D1706840023FF50B
:100F800076AF61683068B1F5803F07D0B1F5A02F2A
:100F900040F09A8040F480203060306840F4803027
:100FA00030609AE0E068002840F20000C4F2472078
:100FB0005CD001210160FFF7C3FB05463068800764
:100FC0003FF574AFFFF7BCFB401B0228F6D90320A6
:100FD00002B0BDE8F08100BFA168306F012905D0E3
:100FE000052955D140F004003067306F40F0010012
:100FF000306756E00020C4F247200021C0F8801E70
:10100000FFF79EFB054600BF706F80077FF558AF66
:10101000FFF796FB401B0228F6D9032002B0BDE87B
:10102000F08100BF0027C4F2472700203866FFF791
:1010300087FB022D05460DD13068800140F18A8082
:10104000FFF77EFB401B02284FF00300F4D902B0EB
:10105000BDE8F0813068800173D5FFF771FB401B5C
:1010600002284FF00300F5D9F1E700BF002101602D
:10107000FFF766FB054600BF306880077FF51DAFB0
:10108000FFF75EFB401B02284FF00300F4D9DEE7B8
:1010900020F001003067306F002920F00400306735
:1010A0007AD0FFF74DFB054641F28837306F800755
:1010B00000F18480FFF744FB401BB842F6D90320BF
:1010C00002B0BDE8F08100BF20F4803030603068AD
:1010D000002920F4802030607AD0FFF731FB0546EC
:1010E000306880033FF5CAAEFFF72AFB401B642837
:1010F000F6D9032002B0BDE8F08100BF7068E16955
:1011000000F480028A4221D1216A00F03F028A4223
:101110001CD147F6C071626A0140B1EB821F15D144
:10112000A16A4FF6FF73C903994300F44032A1F559
:1011300080318A420AD1E16A00F07060B0EB016F41
:1011400004D1002002B0BDE8F08100BF012002B050
:10115000BDE8F08104F11C052FCD084340EA821060
:10116000D9034FF6FF729143A1F5803140EA056043
:101170000843706001203866FFF7E2FA044600BFBA
:1011800030688001DDD4FFF7DBFA001B02284FF046
:101190000300F5D95BE700BFFFF7D2FA054641F23D
:1011A000883700BF306F800708D5FFF7C9FA401BAA
:1011B000B8424FF00300F5D949E700BFB8F1000F7E
:1011C0003FF581AE306C20F0805030647BE600BF8C
:1011D000FFF7B6FA054600BF306880037FF54EAED4
:1011E000FFF7AEFA401B64284FF00300F4D92EE756
:1011F000411E0020B0EB116F1CBF012070474EF262
:101200001002CEF2000251604EF62351CEF20001E0
:10121000F0230B700721906011607047FEE700001B
:1012200070B50368044653F8140F400711D40E46F6
:10123000481C29D086BB00BF1868400527D4FFF79B
:101240007FFA236853F8140F400737D51868400712
:10125000F2D5002070BD00BF18684007F9D41868A7
:10126000400514D418684007F3D4186840050ED41C
:1012700018684007EDD41868400508D4186840077E
:101280004FF0000048BF70BD18684005E4D56FF40A
:1012900080601860042012E0154603E053F8140F34
:1012A0004007D6D418684005F1D4FFF749FA401B2F
:1012B0002368B042F2D958694007EFD420200021BA
:1012C0002022216384F83D2084F83E10226C1043D4
:1012D0002064012084F83C1070BD00002DE9F0412D
:1012E000054600681E46144601F47F0201338FB2A2
:1012F00042D0DDF81880B2F5803F40F08780406929
:101300003840C01BB0FA80F04009A04240F0C880CD
:101310004EB924E040693840C01BB0FA80F0400963
:10132000A04240F0BD80FFF70BFAA0EB080128684F
:10133000B142EFD941693940C91BB1FA81F149097C
:10134000A142E7D19BE000BF40693840C01BB0FA22
:1013500080F04009A0424FF0000040F0A280FFF76B
:10136000EFF9286841693940C91BB1FA81F149098F
:10137000A142E9D183E000BFB2F5803F24D100BF94
:1013800041693940C91BB1FA81F14909A14240F0D4
:10139000878041693940C91BB1FA81F14909A142ED
:1013A00040F07E8041693940C91BB1FA81F1490999
:1013B000A14275D141693940C91BB1FA81F149098E
:1013C000A142DDD06CE000BF81693940C91BB1FA90
:1013D00081F14909A14263D181693940C91BB1FA40
:1013E00081F14909A1425BD181693940C91BB1FA38
:1013F00081F14909A14253D181693940C91BB1FA30
:1014000081F14909A142DFD04AE000BF806938403C
:10141000C01BB0FA80F04009A04241D146B923E098
:1014200080693840C01BB0FA80F04009A04237D133
:10143000FFF786F9A0EB08012868B142F0D981696D
:101440003940C91BB1FA81F14909A142E8D116E03E
:1014500080693840C01BB0FA80F04009A0424FF0CC
:10146000000018BFBDE8F081FFF76AF928688169BC
:101470003940C91BB1FA81F14909A142E8D10020E4
:101480002021286385F83D1085F83E00296C41F045
:101490002001296485F83C000120BDE8F08100BFEF
:1014A0000020BDE8F0810000F0B581B0044600687E
:1014B0001D4643698FB203EA0701B94202D10020F9
:1014C00001B0F0BD4169164601323CD0490512D445
:1014D0007EB300BFFFF734F9411B2068B14203D946
:1014E00041693940B9422BD141693940B942E6D00E
:1014F00041694905EED5016841F4007101606FF45E
:1015000080614161042000212022216384F83D2074
:1015100084F83E10226C1043206484F83C100120B3
:1015200001B0F0BD41693940B942C8D041694905AF
:10153000E1D4FFF705F9206841693940B942F1D09B
:101540002020E0E741694905D5D441693940B942D5
:10155000B5D041694905CED441693940B942AED0D0
:1015600041694905C7D441693940B942A7D04169A9
:101570004905C0D441693940B942E3D19FE7000031
:1015800070B50368044653F8140F000611D40E46D4
:10159000481C29D086BB00BF1868400527D4FFF738
:1015A000CFF8236853F8140F000637D518680006E3
:1015B000F2D5002070BD00BF18680006F9D4186885
:1015C000400514D418680006F3D4186840050ED4FA
:1015D00018680006EDD41868400508D4186800069D
:1015E0004FF0000048BF70BD18684005E4D56FF4A7
:1015F00080601860042012E0154603E053F8140FD1
:101600000006D6D418684005F1D4FFF799F8401BBE
:101610002368B042F2D958690006EFD42020002197
:101620002022216384F83D2084F83E10226C104370
:101630002064012084F83C1070BD0000FEE700002B
:10164000FEE700007047000070470000FFF758BA3F
:1016500070B592B006AC20463021FEF793FE00250F
:1016600043F640000595CDE90355CDE901550095B8
:10167000C4F202000168022641F080510160006856
:1016800000F080500090009847F200000095C4F2EE
:101690000000016841F4804101600068482100F4C5
:1016A000804000900098012006904FF48030079011
:1016B0004FF480000D9004200E90119020460C965F
:1016C000CDE90F16FFF7BEFB10B172B6FEE700BF03
:1016D0000F20CDE901064FF48050CDE9040501A8A3
:1016E00002210395FFF7B2FA10B172B6FEE700BF10
:1016F00012B070BD4EF68850CEF20000016841F481
:101700007001016070470000FEE700008AB041F2FE
:101710000005C4F20205FFF701FAFFF799FF002464
:1017200043F630000494C4F2020001680DF1100980
:1017300041F004010160016801F004010491049981
:101740000494016841F080010160016801F08001AA
:10175000049104990494016841F001010160016859
:1017600001F00101049104990494016841F002011F
:101770000160016801F00201049104990494016878
:1017800041F0100101600068494600F0100004902B
:101790000498182004900120CDE9074406902846BB
:1017A0000594FEF7F7FE40F27000A5F5DE31C2F2B7
:1017B000000048F2A0624FF48043C0F2010280E8CA
:1017C0001600C0E90343C0E90544C0E90744FEF739
:1017D000BDFF18B172B600BFFEE700BFFEF736FED0
:1017E00048F68C0040F27004C0F60C00C2F200040F
:1017F0000490642620464E214A4604230096FFF7B3
:1018000057F80A20FEF7B2FE45F65D10C3F63D100C
:1018100004AF049020464E213A4604230096FFF779
:1018200047F846F66D18C5F65D1820464E213A4633
:101830000423CDF810800096FFF73AF846F66D10B5
:10184000CCF6CD100490824620464E213A46042321
:101850000096FFF72DF846F66D10C1F61D100490A6
:1018600020464E213A4604230096FFF721F846F61B
:101870006D1BCDF6DD1B20464E213A460423CDF8E4
:1018800010B00096FFF714F846F66D10C9F69D10DB
:10189000049020464E213A4604230096FFF708F8AC
:1018A00046F66D10CEF6ED10049020464E213A46D5
:1018B00004230096FEF7FCFF42F62D10C0F60D1033
:1018C000049020464E213A4604230096FEF7F0FF8E
:1018D00044F64D10C1F61D10049020464E213A46A4
:1018E00004230096FEF7E4FF20464E213A460423E7
:1018F000CDF810A00096FEF7DBFF20464E213A46B9
:101900000423CDF810800096FEF7D2FF47F67D1A2B
:10191000C9F69D1A20464E213A460423CDF810A060
:101920000096FEF7C5FF46F66D10CBF6BD1004908D
:1019300020464E213A4604230096FEF7B9FF47F6AB
:101940007D10C5F65D10049020464E213A460423D2
:101950000096FEF7ADFF20464E213A460423CDF80F
:1019600010B00096FEF7A4FF0A20FEF7FFFD4CF62C
:10197000CC00C0F60C00049004AA20464E2104239B
:101980000096FEF795FF0A20FEF7F0FD44F64D1095
:10199000C8F68D1004AF049020464E213A46042329
:1019A0000096FEF785FF46F66D10C1F61D100490F7
:1019B00020464E213A4604230096FEF779FF204642
:1019C0004E213A460423CDF810A00096FEF770FF92
:1019D00046F66D18C9F69D1820464E213A46042356
:1019E000CDF810800096FEF763FF47F67D1AC2F629
:1019F0002D1A20464E213A460423CDF810A0009619
:101A0000FEF756FF46F66D10CCF6CD10049020463A
:101A10004E213A4604230096FEF74AFF20464E2107
:101A20003A460423CDF810800096FEF741FF42F6B7
:101A30002D10C0F60D10049020464E213A46042386
:101A40000096FEF735FF44F64D10C3F63D100490A6
:101A500020464E213A4604230096FEF729FF47F61A
:101A60007D10C5F65D100490642620464E213A464E
:101A700004230096FEF71CFF20464E213A4604231D
:101A8000CDF810B00096FEF713FF46F66D18C1F6BC
:101A90001D1820464E213A460423CDF810800096AA
:101AA000FEF706FF46F66D10CCF6CD1004902046EA
:101AB0004E213A4604230096FEF7FAFE20464E21B8
:101AC0003A460423CDF810800096FEF7F1FE20463A
:101AD0004E213A460423CDF810A00096FEF7E8FE0A
:101AE0000A20FEF743FD49F69A1B781E4FF0010AC3
:101AF0000DF12408C1F6991B002401900AE000BFF3
:101B000041F20005DDE9020AC4F20205B0FA80F0F4
:101B10004409A24428461021FEF70CFE284608215D
:101B2000FEF708FE002CF1D0029040F60C00C1F642
:101B30001C00049040F27000C2F200004E214A46A0
:101B400004230096FEF7B4FE0220FEF70FFD4CF6CC
:101B5000CD4C48F21F5E00204FF0FF315246CCF6CC
:101B6000CC4CC5F2EB1ECDE9040000BFA2FB0C3447
:101B7000E40804EB8403A2EB430343F0300609EBD3
:101B800001030A2A5E703BD3A4FB0B6505EB8506B7
:101B9000A4EB460646F03006642A9E7032D3A2FBC0
:101BA0000E656E09A6FB0B5404EB8405A6EB4506F7
:101BB00046F03006B2F57A7FDE7027D344F6D35470
:101BC000C1F26204A2FB0465AE09A6FB0B5441F20C
:101BD0005975CDF2B715A2FB055704EB8405A6EBAA
:101BE000450646F030061E7142F2107304309A42E8
:101BF0004FEA573201F10401B8D24A1C084609E005
:101C00008A1C07E040F00100CA1C03E040F0030218
:101C100040F002004FF00001CDF80CA009F80210CE
:101C200090B3411E022000BF09EB01035F7809EB6E
:101C3000000212F8026C02F8027C471E8F425E70AE
:101C400022DA19F8017012F8016C02F8017C4F1EBB
:101C5000B84209F8016017DA13F8017C19F800603E
:101C600009F80070471C8D1EAF4203F8016C0BDAB7
:101C700013F8027C5678577003F8026C821CCB1E56
:101C8000043904309A42CFDB9DF8100040F2700412
:101C900000284FF06406C2F200043FF431AFDDF8D3
:101CA00004A000BF20F00F01000101F10D02093175
:101CB0008DF8251000F10D0109308DF824208DF8E4
:101CC00026108DF8270020464E2142460423009618
:101CD000FEF7EEFD9AF802000AF1010A0028E1D1B0
:101CE0000EE7F1EE100A4FF6FF71C0F2C03120EAA4
:101CF000010040F04070E1EE100A70470000000063
:101D000000000000010203040607080900000000AB
:101D100001020304381D000800000020100000002C
:101D2000EC010008481D000810000020B806000063
:101D30000C0200080000000001000000100000007C
:081D40000024F4000000000083
:040000050800018965
:00000001FF
